:100000000C94A4000C94CC000C94CC000C94F80B31
:100010000C94F80B0C94F80B0C94CC000C94CC00C2
:100020000C94CC000C94CC000C94CC000C94CC0020
:100030000C94CC000C94CC000C94CC000C94CC0010
:100040000C94370A0C94CC000C94A70A0C94810AE7
:100050000C94CC000C94CC000C94CC000C94CC00F0
:100060000C94D90A0C94CC0007634236B79BD8A7EE
:100070001A39685618AEBAAB558C1D3CB7CC5763CD
:10008000BD6DEDFD753EF6177231BF000000803F7B
:1000900008000000BE922449123EABAAAA2ABECD97
:1000A000CCCC4C3E00000080BEABAAAAAA3E000009
:1000B0000000BF000000803F000000000008417801
:1000C000D3BB4387D1133D190E3CC3BD4282AD2B38
:1000D0003E68EC8276BED98FE1A93E4C80EFFFBE30
:1000E00001C4FF7F3F00000000000000000024006A
:1000F00027002A0000000008000201000003040796
:1001000000000000000000000000000023002600A6
:10011000290000000000250028002B00040404042E
:1001200004040404020202020202030303030303A1
:10013000010204081020408001020408102001027E
:1001400004081020700C661511241FBECFEFD8E0F4
:10015000DEBFCDBF12E0A0E0B1E0ECE0F4E302C00E
:1001600005900D92AE30B107D9F724E0AEE0B2E0D1
:1001700001C01D92AC3FB207E1F710E0C3EAD0E046
:1001800004C02197FE010E94B219C23AD107C9F7F3
:100190000E947E0D0C94F9190C94000090E0FC0173
:1001A000EC50FF4F2491FC01E05DFE4F3491FC01C7
:1001B000E45EFE4FE491EE23C9F0222339F02330B0
:1001C00001F1A8F4213019F1223029F1F0E0EE0F0D
:1001D000FF1FEE5EFE4FA591B4918FB7F894EC919E
:1001E000611126C030953E233C938FBF0895273080
:1001F000A9F02830C9F0243049F7809180008F7D24
:1002000003C0809180008F7780938000DFCF84B51A
:100210008F7784BDDBCF84B58F7DFBCF8091B0001D
:100220008F778093B000D2CF8091B0008F7DF9CFCF
:100230003E2BDACFCF93DF9390E0FC01E05DFE4FE1
:100240002491845E9E4FFC0184918823D1F090E03C
:10025000880F991FFC01E651FF4FA591B491FC0155
:10026000EE5EFE4FC591D49161110EC09FB7F89418
:100270008C91E22FE0958E238C932881E223E883F2
:100280009FBFDF91CF9108958FB7F894EC91E22B47
:10029000EC938FBFF6CF0F931F93CF93DF93EC01B7
:1002A000162F042F1B821A8288EE93E0A0E0B0E0A4
:1002B0008C839D83AE83BF838EE091E09983888396
:1002C0001F8A1E8A198E188E1B8E1A8E1D8E1C8EEA
:1002D0006E8D6E7F6D7F6E8F6695617081E0682791
:1002E000842F0E94CE0061E0802F0E941A01802F8F
:1002F00090E0FC01E05DFE4FE491E88BFC01E45EE0
:10030000FE4FE491F0E0EE0FFF1FEE5EFE4F859191
:1003100094919A8B898B60E0812F0E941A018E8DB7
:1003200081FD04C061E0812F0E94CE001C87812FD7
:1003300090E0FC01E05DFE4FE491ED87FC01E45E9E
:10034000FE4FE491F0E0EE0FFF1FE85FFE4F859156
:1003500094919F878E87DF91CF911F910F91089580
:100360003FB7F8948091B3029091B402A091B50286
:10037000B091B60226B5A89B05C02F3F19F0019693
:10038000A11DB11D3FBFBA2FA92F982F8827BC01EF
:10039000CD01620F711D811D911D42E0660F771F17
:1003A000881F991F4A95D1F708952FB7F894609147
:1003B000AF027091B0028091B1029091B2022FBF52
:1003C000089508950895AF92BF92CF92DF92EF9271
:1003D000FF920F931F93CF93DF936C017B018B01EF
:1003E000040F151FEB015E01AE18BF08C017D1073F
:1003F00059F06991D601ED91FC910190F081E02DC9
:10040000C6010995892B79F7C501DF91CF911F911D
:100410000F91FF90EF90DF90CF90BF90AF90089535
:10042000FC01538D448D252F30E0842F90E0821BFA
:10043000930B541710F0CF96089501970895FC017F
:10044000918D828D981761F0A28DAE0FBF2FB11DD7
:100450005D968C91928D9F5F9F73928F90E008952F
:100460008FEF9FEF0895FC01918D828D981731F0E9
:10047000828DE80FF11D858D90E008958FEF9FEF3D
:100480000895FC01918D228D892F90E0805C9F4F13
:10049000821B91098F73992708958DE293E00E9442
:1004A000410221E0892B09F420E0822F089580E0A9
:1004B00090E0892B29F00E944D0281110C940000DC
:1004C0000895FC01A48DA80FB92FB11DA35ABF4FE9
:1004D0002C91848D90E001968F739927848FA68943
:1004E000B7892C93A089B1898C91837080648C9397
:1004F000938D848D981306C00288F389E02D808146
:100500008F7D80830895EF92FF920F931F93CF9377
:10051000DF93EC0181E0888F9B8D8C8D98131AC03E
:10052000E889F989808185FF15C09FB7F894EE8925
:10053000FF896083E889F989808183708064808382
:100540009FBF81E090E0DF91CF911F910F91FF90CD
:10055000EF900895F62E0B8D10E00F5F1F4F0F7375
:100560001127E02E8C8D8E110CC00FB607FCFACF30
:10057000E889F989808185FFF5CFCE010E9461026B
:10058000F1CFEB8DEC0FFD2FF11DE35AFF4FF08201
:100590009FB7F8940B8FEA89FB8980818062CFCF67
:1005A000CF93DF93EC01888D8823B9F0AA89BB89AA
:1005B000E889F9898C9185FD03C0808186FD0DC095
:1005C0000FB607FCF7CF8C9185FFF2CF808185FFB6
:1005D000EDCFCE010E946102E9CFDF91CF91089566
:1005E000CF93DF93EC018A859B85AC85BD858E8397
:1005F0009F83A887B9870E94D5016A837B838C83F8
:100600009D8381E089838883DF91CF910895CF9383
:10061000DF93EC018E819F81A885B9858A839B83B6
:10062000AC83BD830E94D5016A877B878C879D87B9
:1006300081E089838883DF91CF91089520916F02B3
:10064000260F3327331F21323105ECF42091270385
:10065000FC0190E080E0243069F082E00895A091F0
:100660006F022191AC01415B5D4FA40FB52FB11D0D
:100670002C930196861798F380916F02680F609310
:100680006F0280E0089581E008951092270381E0D1
:10069000809306031092010361E082E10E94CE0084
:1006A00061E083E10E94CE00E9EBF0E080818E7F83
:1006B000808380818D7F808388E48093B80085E487
:1006C0008093BC000895CF93DF9391E090934E0206
:1006D0008823B9F0C091B800D091BA008091BC00D5
:1006E0008A7B8093BC0060E082E10E94CE0060E0E3
:1006F00083E10E94CE000E944503D093BA00C093CC
:10070000B800DF91CF910895CF92DF92EF92FF92E0
:100710000F931F93CF93DF93D82FC62F613208F02A
:1007200098C00E94B0016B017C0180912703811168
:100730006BC081E080932703809306039FEF909323
:100740000503109204039C0F90930303809302030C
:1007500080910203DD0FD82BD09302038091010317
:10076000813009F078C0109201030E94B0016B0142
:100770007C01809102038093BB00809129039091BA
:100780002A03A0912B03B0912C03892B8A2B8B2B4E
:10079000A1F00E94B0010091290310912A03209139
:1007A0002B0330912C036C197D098E099F090617C4
:1007B00017072807390708F448C08091BC0083FD5B
:1007C000D8CF85EC8093BC000E94B0016B017C0106
:1007D00080912703813009F440C0809104038C1775
:1007E00010F4C0910403E1EEF2E0A7E0B3E080E092
:1007F0008C1355C08C2FDF91CF911F910F91FF90DB
:10080000EF90DF90CF9008958091290390912A0373
:10081000A0912B03B0912C03892B8A2B8B2B09F4ED
:1008200084CF0E94B0010091290310912A032091E6
:100830002B0330912C036C197D098E099F09061733
:1008400017072807390708F070CF809128030E9406
:100850006303C0E0CFCF85EEB5CF8091290390919F
:100860002A03A0912B03B0912C03892B8A2B8B2B6D
:1008700009F4AECF0E94B0010091290310912A0320
:1008800020912B0330912C036C197D098E099F094F
:10089000061717072807390708F09ACFD6CF919186
:1008A0009D938F5FA5CF8F929F92AF92BF92CF9271
:1008B000DF92EF92FF920F931F93CF93DF93D0912C
:1008C000E002D13208F0D7C0182FC091DF020E9499
:1008D000B0016B017C018091270381116BC082E024
:1008E00080932703109306038FEF809305031092E4
:1008F0000403D0930303AFEBB2E0E1EEF2E080E05B
:10090000D81391C01092020380910203CC0FC82B20
:10091000C093020380910103813009F088C01092D6
:1009200001030E94B0016B017C018091020380935E
:10093000BB008091290390912A03A0912B03B091D1
:100940002C03892B8A2B8B2BA1F00E94B0010091E4
:10095000290310912A0320912B0330912C036C1949
:100960007D098E099F09061717072807390708F41C
:1009700042C08091BC0083FDD8CF85EC8093BC0041
:100980000E94B0016B017C0180912703823009F441
:1009900050C0809105038F3F09F46FC0809105031B
:1009A000803209F46CC080910503803309F469C07A
:1009B00084E026C08091290390912A03A0912B0303
:1009C000B0912C03892B8A2B8B2B09F484CF0E94A6
:1009D000B0018090290390902A03A0902B03B0903F
:1009E0002C036C197D098E099F0986169706A806A7
:1009F000B90608F070CF809128030E94630385E058
:100A00001092BE021092E0021092BD02DF91CF91CF
:100A10001F910F91FF90EF90DF90CF90BF90AF901C
:100A20009F908F9008959D9191938F5F69CF85EEF0
:100A3000A5CF8091290390912A03A0912B03B09117
:100A40002C03892B8A2B8B2B09F49ECF0E94B0019B
:100A50000091290310912A0320912B0330912C033C
:100A60006C197D098E099F09061717072807390792
:100A700008F08ACFC0CF81E0C3CF80E0C1CF82E051
:100A8000BFCF83E0BDCFCF93DF93C3E8D4E0A9AD60
:100A9000BAAD988121E02093BD029093DF021092BD
:100AA000BE021092E002ED91FC9111970190F0814D
:100AB000E02D682FCD01099581E00E94530490E05C
:100AC0009B8B8A8BDF91CF9108958F929F92AF92EB
:100AD000BF92CF92DF92EF92FF920F931F93CF932B
:100AE000DF93CDB7DEB72A970FB6F894DEBF0FBEFF
:100AF000CDBF9AE0E0E0F1E0DE01119601900D92A9
:100B00009A95E1F76D3060F16CE018EF160F912FB8
:100B1000990F890F0E944305612F70E0660F771FC0
:100B200081E090E08C0F9D1F680F791FFB01C08052
:100B3000D1800E94B0014B015C01F12CE12C03E259
:100B400010E00E94B001681979098A099B096C15A7
:100B50007D058E059F0540F4C8010197F1F7F1CF9F
:100B6000683098F668E0D1CF2A960FB6F894DEBFC9
:100B70000FBECDBFDF91CF911F910F91FF90EF90EE
:100B8000DF90CF90BF90AF909F908F900895089581
:100B9000E091BC028091BB02E81730F4F0E0E95F1D
:100BA000FC4F808190E008958FEF9FEF0895909122
:100BB000BC028091BB022FEF3FEF981748F4E92F5A
:100BC000F0E0E95FFC4F208130E09F5F9093BC0232
:100BD000C90108958091BB029091BC02891B990BB9
:100BE0000895CF92DF92EF92FF920F931F93CF93CE
:100BF000DF937C01CB018A012091BD02222389F081
:100C0000EB016B01C40ED51ECC15DD0569F06991B1
:100C1000D701ED91FC910190F081E02DC70109957C
:100C2000F3CF642F0E941E03C801DF91CF911F9163
:100C30000F91FF90EF90DF90CF900895CF93DF93C7
:100C40001F92CDB7DEB769832091BD022223F9F050
:100C50002091E002203258F021E030E0FC013383A3
:100C6000228390E080E00F90DF91CF9108958091F2
:100C7000BE02E82FF0E0E154FD4F998190838F5F31
:100C80008093BE028093E00281E090E0ECCF61E0CF
:100C9000CE0101960E941E03F7CF2091B902309138
:100CA000BA022817390771F49091B7028091B802FF
:100CB000981741F0E091B702F0E0E25FFD4F8081CC
:100CC00090E008958FEF9FEF0895EF92FF920F93BA
:100CD0001F93CF93DF93DC015C96ED90FC905D97C2
:100CE000E114F10479F481E090E013969C938E93E3
:100CF000129790E080E0DF91CF911F910F91FF90CC
:100D0000EF9008955196ED91FC91529750968C91E9
:100D10005097982F90950FB75E962C915E97122F53
:100D2000127021FD6095F8942081112319F1282B70
:100D30002083E7012197F1F728E0462F50E030812A
:100D400060FF1AC0382B3083E7012197F1F7BA0111
:100D500075956795215089F7112381F0808189234A
:100D600080830FBF5C968D919C910197F1F781E094
:100D700090E0C1CF2923DCCF3923E5CF9081892BA7
:100D8000EFCF2091B9023091BA022817390761F4E8
:100D90008091B8022091B70290E0805C9F4F821B47
:100DA00091098F739927089590E080E0089520912C
:100DB000B9023091BA0228173907B9F49091B702F5
:100DC0008091B802981789F0E091B702F0E0E25FF5
:100DD000FD4F80812091B70230E02F5F3F4F2F738E
:100DE00033272093B70290E008958FEF9FEF089587
:100DF000E091B902F091BA02E817F90769F4A38902
:100E0000B4899C918589809589238C931092BA022C
:100E10001092B90281E0089580E00895CF93DF93A6
:100E2000EC011B8E1A8E198E188E1F8A1E8A8DE970
:100E300091E09D8F8C8F8C858631E0F52DEB30E035
:100E40003F8B2E8B2BE931E0398F288F2CE231E05C
:100E50003B8F2A8F90916800883008F44EC021E0C3
:100E60008E3008F420E081E001C0880F2A95EAF76F
:100E7000892B809368009C852DE630E0983050F0F7
:100E80002BE630E09E3030F02CE630E0963110F06A
:100E900030E020E03C8B2B8B292F30E0983078F528
:100EA00081E001C0880F9A95EAF78D8B8C8D9D8D1E
:100EB0000197F1F78A8D9B8D892BE1F08091B90222
:100EC0009091BA02C817D907A9F0009711F00E94B3
:100ED000F8068E8D8E7F8E8F1092B8021092B70218
:100EE000D093BA02C093B902EB89FC8980819D89B5
:100EF000892B8083DF91CF91089584E0B9CF9E3014
:100F000040F42850310981E001C0880F2A95EAF7A2
:100F1000CCCF2E503109F7CF90E080E008958F922A
:100F20009F92AF92BF92CF92DF92EF92FF9280E0BA
:100F30000E9443058091950490919604892B61F05D
:100F400060E070E0CB01FF90EF90DF90CF90BF901A
:100F5000AF909F908F90089563E0809183040E94EA
:100F600084031092BC028093BB02833048F38091CB
:100F7000BC049091BD04DC01ED91FC910284F385E9
:100F8000E02D0995092E000CAA0BBB0B5C019924DE
:100F900088248091BC049091BD04DC01ED91FC910A
:100FA0000284F385E02D09956C01990FEE08FF0886
:100FB000FE2CED2CDC2CCC24C80CD91CEA1CFB1C10
:100FC0008091BC049091BD04DC01ED91FC91028400
:100FD000F385E02D0995BC01990F880B990B6C0DD9
:100FE0007D1D8E1D9F1DAFCFFC0101900020E9F7F4
:100FF0003197AF01481B590BBC018DE293E00C9473
:10100000E3018F929F92AF92BF920F931F93CF9362
:10101000DF93CDB7DEB7A1970FB6F894DEBF0FBE52
:10102000CDBF19A2423008F44AE08E010F5D1F4F78
:10103000842E912CB12CA12CA50194010E94901911
:10104000E62FB901CA01EA30F4F4E05DD801EE936D
:101050008D01232B242B252B79F790E080E010972E
:1010600019F0CD010E94F407A1960FB6F894DEBFE7
:101070000FBECDBFDF91CF911F910F91BF90AF9069
:101080009F908F900895E95CE1CFCF93DF930E940A
:10109000F407EC0180E491E00E94F4078C0F9D1F9F
:1010A000DF91CF9108954F925F926F927F928F92CE
:1010B0009F92AF92BF92CF92DF92EF92FF921F93D7
:1010C000CF93DF936B017C01D42FAC019B010E9475
:1010D00046188823D9F083E491E00E94F407EC01DC
:1010E00080E491E00E94F4078C0F9D1FDF91CF9167
:1010F0001F91FF90EF90DF90CF90BF90AF909F90A7
:101100008F907F906F905F904F90089546015701A8
:10111000E894B7F82FEF3FEF4FE75FE7C501B40161
:101120000E94461881110DC02FEF3FEF4FE75FE798
:10113000C501B4010E94251618161CF487E491E03D
:10114000CCCF2FEF3FEF4FE75FE4C701B6010E941E
:10115000841718161CF48BE491E0BFCF2FEF3FEFFC
:101160004FE75FECC701B6010E94251687FDF3CF5C
:1011700020E030E0A901C701B6010E942516B12C7C
:10118000A12C87FF0AC06DE28DE293E00E948302EA
:101190005C01F7FAF094F7F8F0941D2F60E070E02E
:1011A00080E09FE3C0E020E030E040E251E40E94B4
:1011B0002A16CF5FCD17B8F3A70196010E94B91583
:1011C0006B017C010E94A3162B013C010E94D216E8
:1011D0009B01AC01C701B6010E94B8156B017C01EF
:1011E0004AE0C301B2010E940108EC016EE28DE207
:1011F00093E00E948302C80FD91FCA0DDB1D115056
:1012000008F46ECF20E030E040E251E4C701B601BF
:101210000E9489174B015C010E94A3166B01F12CFF
:10122000E12C4AE0C701B6010E940108C80FD91F8E
:10123000C701B6010E94D2169B01AC01C501B401E1
:101240000E94B8156B017C01DACF2F923F924F922A
:101250005F926F927F928F929F92AF92BF92CF9246
:10126000DF92EF92FF920F931F93CF93DF93D82FCC
:10127000C92F8B010E947C1524E630E040E050E04D
:101280000E94901949019B01AC0160E876E988E968
:1012900090E00E9480196B017C01F80191828082AC
:1012A000ED2FFC2F2191822F022E000C990BC0975D
:1012B0000A97C0F32E3239F51F0180E8882E86E99F
:1012C000982E88E9A82EB12C9AE0492E512C612C39
:1012D000712CF101C1911F010C2E000CDD0BE09768
:1012E000CA30D10580F4C501B401A30192010E9466
:1012F000901949015A01DE010E94C319C60ED71E7A
:10130000E81EF91EE6CFA5E0B0E0A70196010E9415
:10131000B8196F5F7F4F8F4F9F4F23E030E040E061
:1013200050E00E949019F80122833383448355834F
:101330001682DF91CF911F910F91FF90EF90DF9078
:10134000CF90BF90AF909F908F907F906F905F9065
:101350004F903F902F9008951F93CF93DF93EC0110
:1013600018811D3209F42196CE010E947C159B0143
:10137000AC01A4E6B0E00E94B819AB01BC01FE01CB
:101380002991822F022E000C990BC0970A97B8F36F
:101390002E3231F58181082E000C990BC0978A30CE
:1013A0009105F0F4AAE0A89F9001A99F300D1124A7
:1013B000C901330FAA0BBB0B480F591F6A1F7B1FB4
:1013C0008281082E000C990BC0978A30910540F459
:1013D000092E000CAA0BBB0B480F591F6A1F7B1F5D
:1013E0001D3239F470956095509541955F4F6F4F60
:1013F0007F4FCB01BA01DF91CF911F91089585ED09
:101400008093BC008091290390912A03A0912B0323
:10141000B0912C030796A11DB11D23E0B695A795A9
:10142000979587952A95D1F72091BC0024FD03C09C
:101430001092270308954091290350912A03609147
:101440002B0370912C03452B462B472B69F30097F8
:10145000A105B10541F02AE22A95F1F700C00197F4
:10146000A109B109E1CF809128030C9463031F9275
:101470000F920FB60F9211242F933F938F939F9348
:10148000AF93BF938091AF029091B002A091B1024F
:10149000B091B2023091AE0223E0230F2D3758F500
:1014A0000196A11DB11D2093AE028093AF029093CF
:1014B000B002A093B102B093B2028091B3029091B6
:1014C000B402A091B502B091B6020196A11DB11D62
:1014D0008093B3029093B402A093B502B093B60286
:1014E000BF91AF919F918F913F912F910F900FBE20
:1014F0000F901F90189526E8230F0296A11DB11D8D
:10150000D2CF1F920F920FB60F9211242F933F93B9
:101510004F935F936F937F938F939F93AF93BF93FB
:10152000EF93FF938DE293E00E946102FF91EF91B0
:10153000BF91AF919F918F917F916F915F914F91EB
:101540003F912F910F900FBE0F901F9018951F92F3
:101550000F920FB60F9211242F938F939F93EF93B7
:10156000FF93E0913D03F0913E038081E0914303BE
:10157000F091440382FD1BC09081809146038F5FF0
:101580008F7320914703821741F0E0914603F0E00A
:10159000E35DFC4F958F80934603FF91EF919F9100
:1015A0008F912F910F900FBE0F901F9018958081F3
:1015B000F4CF1F920F920FB60F9211242F933F93E7
:1015C0004F935F936F937F938F939F93AF93BF934B
:1015D000EF93FF938091B900887F803609F44AC069
:1015E000F0F5883209F4A7C018F5803109F49BC0E2
:1015F000B8F4882309F4F9C0883009F494C0FF9145
:10160000EF91BF91AF919F918F917F916F915F917A
:101610004F913F912F910F900FBE0F901F901895F3
:10162000883109F488C0803251F78093050314C0D3
:10163000803409F49DC040F48033B9F38833F9F65F
:101640008093050385ECB0C0803509F485C08835EA
:1016500009F496C0883499F60E94FF09D0CF8839E2
:1016600009F48CC038F5883729F050F4883611F029
:10167000803729F683E0809327031092910257C0A8
:10168000883809F47BC0803919F0803809F0B7CF69
:1016900080919102803208F071C0E091910281E066
:1016A0008E0F809391028091BB00F0E0EF58FD4FC8
:1016B00080833DC0803B39F0E0F4803A09F479C082
:1016C000883A09F09CCF84E080932703109270023F
:1016D00010926F02E0919402F09195020995809129
:1016E0006F0281110FC081E080936F0210924F0250
:1016F00009C0803C09F4A6CF883C09F4A3CF883BFD
:1017000009F07DCFE091700281E08E0F809370022E
:10171000F0E0E15BFD4F80818093BB00909170020F
:1017200080916F0229C0809102038093BB0085ECF9
:101730008093BC0064CF90910403809103039817B9
:1017400058F5E091040381E08E0F80930403F0E0EC
:10175000EF51FD4F8081E9CFE091040381E08E0FCE
:10176000809304038091BB00F0E0EF51FD4F808334
:1017700090910403809103039817C8F285E8D8CFAD
:10178000E091040381E08E0F809304038091BB00FD
:10179000F0E0EF51FD4F80838091060381115CCF13
:1017A00081E08093010384EA8093BC0010922703B8
:1017B00026CF85EC8093BC00109227038091910284
:1017C000803230F4E0919102F0E0EF58FD4F10824A
:1017D0006091910270E0E0919202F091930281E7B2
:1017E00092E00995109291020ACF1092050334CF2E
:1017F0001F920F920FB60F9211242F933F934F9386
:101800005F936F937F938F939F93AF93BF93EF9368
:10181000FF93E091B902F091BA02309749F0A685A2
:10182000B7858585968D91FF14C09C918923A1F47D
:10183000FF91EF91BF91AF919F918F917F916F91A8
:101840005F914F913F912F910F900FBE0F901F907E
:1018500018959C91892361F7A389B4899C91858906
:10186000809589238C93868997890197F1F7608DFC
:10187000718DA685B785558538E020E0CB010197AD
:10188000F1F7822F90E095958795282F4C9145236D
:1018900009F02068315091F7868D81FD2095809167
:1018A000B80290E001968F7399273091B7023817EC
:1018B00099F0A091B802B0E0A25FBD4F2C93809345
:1018C000B802828D938D0197F1F7A389B4898C9129
:1018D0009589892B8C93ACCF868D8160868FF1CFD3
:1018E000CF93DF93EDE2F3E01382128288EE93E070
:1018F000A0E0B0E084839583A683B78320E231E043
:101900003183208325EC30E03587248724EC30E0D8
:101910003787268720EC30E0318B208B21EC30E0BC
:10192000338B228B22EC30E0358B248B26EC30E09D
:10193000378B268B118E128E138E148EC7E7D4E050
:101940001B821A828C839D83AE83BF8382E391E0E6
:101950009983888343E062E08DED94E00E944B011F
:1019600045E064E08EEB94E00E944B01E3E8F4E094
:1019700087E78083D2AFC1AF88E0818389E19CEFA4
:10198000AFEFBFEF82839383A483B583868397836E
:10199000A087B187938B828B10AA11AA12AA13AACF
:1019A00014AA15AA16AA17AA1286138614861586D3
:1019B00016861786108A118A81E080AFEAECF3E080
:1019C000108211821382128214821582168217826B
:1019D000108612861186138614861586168617863B
:1019E000118A108A128A138A148A158A168A108E0E
:1019F000178A118E128E138E148E158E12A213A2B8
:101A000014A215A216A217A210AA11AA12AA13AA0A
:101A100014AA15AA16AE17AE10920E0410920F0457
:101A200010921004109211041092160410921704D0
:101A300010921C0410921D0410921E0410921F0498
:101A4000109224041092250410922A0410922B0460
:101A500010922C0410922D04109232041092330430
:101A6000109238041092390410923A0410923B04F8
:101A700010924004109241041092460410924704C0
:101A8000109248041092490410924E0410924F0490
:101A900082E080935F0410926004109261041092BF
:101AA000620410926404109263041092660410920F
:101AB00065041092670410926804109269041092F1
:101AC0006A0410926B0410926C0410926D041092D0
:101AD0006E0410926F0410927004109271041092B0
:101AE0007204109273041092740410927504109290
:101AF000760410925004DF91CF910895CF93DF9335
:101B0000CDB7DEB764970FB6F894DEBF0FBECDBF7A
:101B1000789484B5826084BD84B5816084BD85B5C8
:101B2000826085BD85B5816085BD80916E008160D4
:101B300080936E001092810080918100826080937A
:101B4000810080918100816080938100809180007C
:101B50008160809380008091B10084608093B100A7
:101B60008091B00081608093B00080917A008460A1
:101B700080937A0080917A00826080937A008091CD
:101B80007A00816080937A0080917A0080688093E7
:101B90007A001092C100E0913D03F0913E0382E093
:101BA0008083E0913903F0913A031082E0913B0386
:101BB000F0913C038FEC808310924503E091410348
:101BC000F091420386E08083E0913F03F09140036F
:101BD000808180618083E0913F03F09140038081A8
:101BE00088608083E0913F03F091400380818068AA
:101BF0008083E0913F03F091400380818F7D80835B
:101C00008EEB94E00E940E078DED94E00E940E078B
:101C100061E08BE00E941A0161E08AE00E941A01F3
:101C200060E08BE00E94CE0060E08AE00E94CE007F
:101C30001092BC021092BB021092BE021092E002FF
:101C40000E94450381EE91E0909395028093940267
:101C500082EE91E0909393028093920280918304AC
:101C60009AE8980F923008F0D3C091E09093BD02AB
:101C70008093DF0281E00E945304382E8111C8C096
:101C80008EE10E9443050E94B0014B015C010E945D
:101C9000B001681979098A099B09603F7A4081057A
:101CA000910528F483E290E00197F1F7F0CF80E00E
:101CB00090E0A0E8BFE38093970490939804A093EA
:101CC0009904B0939A0480E090E0A0E0B7E4809398
:101CD0009B0490939C04A0939D04B0939E0480E089
:101CE00090E0A0E8B7E480939F049093A004A093B1
:101CF000A104B093A20480E090E0A0E8BBE380934D
:101D0000A3049093A404A093A504B093A60480E038
:101D100090E0A0E0BCE38093A7049093A804A09374
:101D2000A904B093AA0480E090E0A0E8B3E4809313
:101D3000AB049093AC04A093AD04B093AE0480E0E8
:101D400090E0A0E0B4E38093AF049093B004A0933C
:101D5000B104B093B20487E994E09A838983222482
:101D6000239480E5830D880F0E944305809195049C
:101D700090919604892B09F46AC110E000E0E98192
:101D8000FA8181909190A190B190FA83E9837F01CB
:101D9000F4E0EF1AF1082801712C612CC301B8019D
:101DA0000E94D216A50194010E948917D7016D9354
:101DB0007D938D939C9313978091B7049091B80471
:101DC000A091B904B091BA0434E0880F991FAA1FFA
:101DD000BB1F3A95D1F780279525A625B725809377
:101DE000B7049093B804A093B904B093BA04332015
:101DF00039F0222029F022242394012B09F4212CEC
:101E00003394B7E03B12ADCF8FE491E0211002C0D4
:101E100082E691E00E94450889E791E00E9445082A
:101E200020E0222E20E0322E12E0E1E4E0937C005C
:101E300080917A00806480937A0080917A0086FD98
:101E4000FCCF6091780070917900072E000C880B10
:101E5000990B0E94D4162AE038E240EA5BE30E9424
:101E6000891720E030E040E251E40E948917609336
:101E7000AA027093AB028093AC029093AD028EEBFA
:101E800094E00E94C106181619060CF009C48EEBE6
:101E900094E00E94D706082F80916704909168040F
:101EA000A0916904B0916A040196A11DB11D8093AF
:101EB000670490936804A0936904B0936A040432A1
:101EC00009F4A8C2E091610405320CF0E8C00A30C0
:101ED00019F00D3009F0ABC2EF3008F05FC1F0E04F
:101EE000E05BFB4F1082C0904F04CC2009F458C136
:101EF00020915004822F022E000C990B3FEB320FE1
:101F0000363008F0D8C0C7978295807F90915104F1
:101F1000292F092E000C330B4FEB490F463008F0E8
:101F2000D2C027533109820F90914E04891323C1E7
:101F30008091730490917404A0917504B09176041B
:101F40000196A11DB11D8093730490937404A09316
:101F50007504B093760480916204882399F080918F
:101F60006B0490916C04A0916D04B0916E04019685
:101F7000A11DB11D80936B0490936C04A0936D041C
:101F8000B0936E04F0905F04FF2009F4A5C0F1E067
:101F9000FF1234C08CEE93E00E9407038AEF93E0B7
:101FA0000E94070380916204882341F187E0EAEDF3
:101FB000F3E0ACECB3E001900D928A95E1F787E095
:101FC000E1EEF3E0A3EDB3E001900D928A95E1F725
:101FD0000E94D5016093E8037093E9038093EA03BC
:101FE0009093EB03F092CB03F092CA0388E094E065
:101FF0000E94F00286E194E00E94F002E090650405
:10200000F0906604E114F10409F4DBC2E091650488
:10201000F091660466A177A1D70196968D919C9167
:102020000E94DA19892B09F0CCC2B701C70140968A
:102030000E94E3190E94D501F70160A371A382A356
:1020400093A321E025A324A3E2A4F3A4DBCF62E0C1
:10205000809183040E9484031092BC028093BB028F
:10206000823008F48ACE8091BC049091BD04DC01DA
:10207000ED91FC910284F385E02D0995D82EC12CB9
:102080008091BC049091BD04DC01ED91FC9102842F
:10209000F385E02D09958C010C0D1D1D70CE0A32C3
:1020A00009F41ACF0C3209F0C2C180914E04802786
:1020B00080934E0411CF2156263018F4875591098C
:1020C00023CFC09721CF9156963018F42755310968
:1020D0002ACF2053310927CF8AEF93E00E940703CC
:1020E00080916204882329F187E0EAEDF3E0ACEC0B
:1020F000B3E001900D928A95E1F787E0E1EEF3E01D
:10210000A3EDB3E001900D928A95E1F70E94D5010D
:102110006093E8037093E9038093EA039093EB03E1
:1021200021E02093CB032093CA0384E294E00E9431
:10213000F00280913C0490913D04A0913E04B09146
:102140003F048093380490933904A0933A04B093E9
:102150003B040E94D501609334047093350480934E
:1021600036049093370481E08093330480933204E3
:1021700080E494E041CF80916F0490917004A0912D
:102180007104B09172040196A11DB11D80936F047A
:1021900090937004A0937104B0937204C12C11C287
:1021A00090916004911146C06EE871E080E594E082
:1021B0000E94DA19892B41F064E971E080E594E02E
:1021C0000E94DA19892B01F581E080935F048091E8
:1021D0006304909164049093660480936504E09096
:1021E0006504F0906604E114F104C1F260E574E066
:1021F000D70196968D919C910E94DA1997FFDAC1CA
:10220000F70182A593A5E7CF6AE971E080E594E044
:102210000E94DA19892B41F060EA71E080E594E0D0
:102220000E94DA19892B19F410925F04D0CF109311
:102230005F04CDCFE0915F04E23009F448C08091A3
:102240005004882309F443C020E2E29FF0011124E6
:10225000E92B3197E932F10508F039C0EE5CFE4E0A
:102260000C94B2195B119D11A411AB11AE11DC11CC
:10227000E311F011FD116711671167116711671103
:10228000671167116711671167116711671167118E
:10229000671167116711671167116711671167117E
:1022A000671167115B1197119D11A411AB11AE114C
:1022B000B511C211CF1180E594E00E94AC09609382
:1022C0000004709301048093020490930304E0904F
:1022D0006504F0906604C0906004E114F10409F410
:1022E0005DCFE0916504F091660466A177A1D70106
:1022F00096968D919C910E94DA19892B09F04ECF08
:10230000F70120A531A5D12CC216D3060CF446CF77
:102310002C153D0539F440E150E060E574E0C7015B
:102320000E94EA19D7019A96ED90FC90D4CF91E0E3
:10233000813409F445C090E043C06AED73E080E564
:1023400094E00E942509C3CF91E0833509F090E025
:102350009093E003BCCF61EE73E0F1CF91E087355D
:1023600009F090E09093E703B2CF80E594E00E94FB
:10237000AC09609312047093130480931404909337
:102380001504A5CF80E594E00E94AC096093200479
:1023900070932104809322049093230498CF80E5C6
:1023A00094E00E947C156093F2037093F303809392
:1023B000F4039093F5038BCF91E081330CF4BBCF02
:1023C0009093620484CF80E594E00E947C15609332
:1023D0003C0470933D0480933E0490933F0477CF78
:1023E00080E594E00E94AC0960934A0470934B042A
:1023F00080934C0490934D046ACF80E594E00E9452
:10240000AC0960932E0470932F0480933004909352
:1024100031045DCF109261041092600410924E045A
:1024200010935F0410924F041092620428CDEE3096
:1024300040F481E08E0F80936104F0E0E05BFB4F9D
:10244000008380914F0481111ACD80914E04D82EC3
:10245000D026D0924E0413CD6091850470918604ED
:1024600080918704909188040E94D4162AE037ED69
:1024700043E25CE30E948917A70196010E94B91507
:1024800093C286EA91E00E94450880EB91E00E94A9
:10249000F407609196027091970280919802909152
:1024A000990242E050E00E9453088EEB91E00E94B6
:1024B000F40760919A0270919B0280919C02909126
:1024C0009D0242E050E00E94530889EC91E00E9496
:1024D000F40760919E0270919F028091A0029091FA
:1024E000A10242E050E00E94530884ED91E00E9476
:1024F000F4076091A2027091A3028091A4029091CE
:10250000A50246E050E00E9453088FED91E00E9442
:10251000F4076091A6027091A7028091A8029091A1
:10252000A90246E050E00E9453088BEE91E00E9421
:10253000F4076091AA027091AB028091AC02909175
:10254000AD0242E050E00E94530881E491E00E9415
:10255000F4070E94B0014B015C0188EEC82E83E0B5
:10256000D82EE12CF12C0E94B001681979098A0952
:102570009B09683E734081059105A8F3B1E0CB1A31
:10258000D108E108F108E8EE8E0EE3E09E1EA11CE2
:10259000B11CC114D104E104F10429F72114310460
:1025A00009F443CC0E944D02882309F43ECC0E94DA
:1025B00000003BCC892B09F4F1CD109266041092F7
:1025C0006504809160048F5F8093600410926104C1
:1025D00081E00A3209F080E080934F04CC2009F4B6
:1025E0004ECC8091CA03882309F449CC1092CB03C6
:1025F0006091CE037091CF038091D0039091D1036D
:102600000E94D21628E23BE64EE65EE40E942A16BD
:102610006B017C016091CC037091CD0390E080E070
:102620000E94D2169B01AC01C701B6010E94B915E8
:102630002091D203211190586093A2027093A302BB
:102640008093A4029093A5026091D5037091D60364
:102650008091D7039091D8030E94D21628E23BE6DE
:102660004EE65EE40E942A166B017C016091D30362
:102670007091D40390E080E00E94D2169B01AC01DF
:10268000C701B6010E94B9152091D90321119058B4
:102690006093A6027093A7028093A8029093A90268
:1026A000D09084046D2D80E40E946505E09095042F
:1026B000F0909604E114F10409F0E7C10E948F073D
:1026C0006D877E878F87988BE0909504F0909604B5
:1026D000E114F10409F0D9C16D2D80E50E94650572
:1026E000E0909504F0909604E114F10409F0CDC156
:1026F0000E948F07E0909504F0909604E114F10495
:1027000009F0C3C10E94D2162091AB043091AC04F1
:102710004091AD045091AE040E94B8156B017C014C
:102720002091AF043091B0044091B1045091B204B3
:102730000E94891720E030E04AEF54E40E94B91566
:102740000E949C164B015C01809285049092860445
:10275000A0928704B09288042091A7043091A80425
:102760004091A9045091AA04C701B6010E9489179B
:1027700020919F043091A0044091A1045091A204A3
:102780000E94B9152B013C012091A3043091A404AF
:102790004091A5045091A604C701B6010E94891773
:1027A00020919B0430919C0440919D0450919E0483
:1027B0000E94B91569837A838B839C838091BB04C3
:1027C000882309F4A0C0B0ED8B16B7E09B06A104E6
:1027D000B1040CF098C0A7019601C701B6010E9490
:1027E000891720E030E040E050E30E948917698BB0
:1027F0007A8B8B8B9C8BC501B401605D774081091E
:1028000091099B01AC010E9480190E94D4166B01B2
:102810007C0120E030E040E250E40E9489176D83A3
:102820007E838F83988720E030E040EA5FE3C70132
:10283000B6010E9489176B017C01E4E28E16EAEF73
:102840009E06EFEFAE06BE06A4F5C501B4016452C4
:102850007A4F8F4F9F4F9B01AC010E9480190E94BD
:10286000D41669877A878B879C8720E030E040EE1A
:1028700050E40E9489179B01AC016D817E818F819C
:1028800098850E94B9156D837E838F83988720E099
:1028900030E040EB50E469857A858B859C850E9409
:1028A00089179B01AC01C701B6010E94B9156B01E4
:1028B0007C01C501B4010E94D41629893A894B894B
:1028C0005C890E94B8150E949C16609385047093E1
:1028D000860480938704909388042D813E814F81E4
:1028E0005885C301B2010E94B8152B013C01A70114
:1028F000960169817A818B819C810E94B8156983D8
:102900007A838B839C836D857E858F8598890E94D1
:10291000D21629813A814B815C810E94891720E07F
:1029200030E040E055E30E948917A30192010E9424
:10293000B81520E030E040E058E30E9489170E947B
:102940009C166093890470938A0480938B049093FF
:102950008C040E94D5016093B3047093B4048093F7
:10296000B5049093B604C0909104D0909204E09086
:102970009304F090940420E030E0A901C701B6016F
:102980000E942516811168CD60918504709186049E
:1029900080918704909188040E94D4162AE037ED34
:1029A00043E25CE30E94891760939602709397025A
:1029B000809398029093990280908D0490908E0459
:1029C000A0908F04B09090046091890470918A0463
:1029D00080918B0490918C040E94D4162AE037EDEC
:1029E00043E25CE30E9489176B017C0120E030E048
:1029F000A901C501B4010E942516882341F0A50153
:102A00009401C701B6010E94B9156B017C01C09207
:102A10009A02D0929B02E0929C02F0929D0220E0EA
:102A200030E54DE754E4C701B6010E942A162FECA9
:102A300039ED42E45EE30E94F6179B01AC0160E0D1
:102A400070E080E89FE30E94B8152DEC3AE24DE279
:102A500057E40E94891760939E0270939F028093AF
:102A6000A0029093A10296E9E92E92E0F92E8EEA57
:102A700092E08E159F0509F404CDD7016D917D017B
:102A80008DED94E00E946506F2CF8AEF91E00E94FE
:102A9000F4076701FF0CEE08FF084AE0C701B60122
:102AA000F7FE0DC06DE28DE293E00E94830266277F
:102AB0007727CB016C197D098E099F094AE00E9496
:102AC000010880E491E00E94F407CDCFCF93DF931B
:102AD000CEE0D1E0D093BF04C093BE048EEB94E06F
:102AE0000E94F806D093DE04C093DD048DED94E0DF
:102AF000DF91CF910C94F8061F93FC01992788274A
:102B0000BC01E89411911032E9F3193010F01E3035
:102B1000C8F31B3251F01D3249F4689406C00E947C
:102B2000A315610F711D811D911D119110531A3054
:102B3000B0F33EF490958095709561957F4F8F4FDF
:102B40009F4F1F910895592F482F372F262F660F1B
:102B5000771F881F991F660F771F881F991F620FA5
:102B6000731F841F951F660F771F881F991F089575
:102B70005058BB27AA270E94D0150C944A170E94D0
:102B80003C1738F00E94431720F039F49F3F19F4A6
:102B900026F40C9439170EF4E095E7FB0C943317E8
:102BA000E92F0E945B1758F3BA176207730784076F
:102BB000950720F079F4A6F50C947D170EF4E095B6
:102BC0000B2EBA2FA02D0B01B90190010C01CA01E7
:102BD000A0011124FF27591B99F0593F50F4503E92
:102BE00068F11A16F040A22F232F342F4427585F84
:102BF000F3CF469537952795A795F0405395C9F79C
:102C00007EF41F16BA0B620B730B840BBAF0915053
:102C1000A1F0FF0FBB1F661F771F881FC2F70EC0F2
:102C2000BA0F621F731F841F48F4879577956795C5
:102C3000B795F7959E3F08F0B0CF9395880F08F0B1
:102C40009927EE0F9795879508950E940F1708F41E
:102C500081E008950E943E160C944A170E94431783
:102C600058F00E943C1740F029F45F3F29F00C9483
:102C7000331751110C947E170C9439170E945B176F
:102C800068F39923B1F3552391F3951B550BBB279B
:102C9000AA2762177307840738F09F5F5F4F220FE0
:102CA000331F441FAA1FA9F335D00E2E3AF0E0E8D7
:102CB00032D091505040E695001CCAF72BD0FE2F21
:102CC00029D0660F771F881FBB1F261737074807B5
:102CD000AB07B0E809F0BB0B802DBF01FF2793586D
:102CE0005F4F3AF09E3F510578F00C9433170C94E7
:102CF0007E175F3FE4F3983ED4F38695779567950A
:102D0000B795F7959F5FC9F7880F911D96958795A1
:102D100097F90895E1E0660F771F881FBB1F6217C0
:102D200073078407BA0720F0621B730B840BBA0B7E
:102D3000EE1F88F7E09508950E94A3166894B111DC
:102D40000C947E1708950E94631788F09F5798F09F
:102D5000B92F9927B751B0F0E1F0660F771F881FA0
:102D6000991F1AF0BA95C9F714C0B13091F00E94BA
:102D70007D17B1E008950C947D17672F782F882771
:102D8000B85F39F0B93FCCF3869577956795B395E1
:102D9000D9F73EF490958095709561957F4F8F4F50
:102DA0009F4F0895E89409C097FB3EF49095809555
:102DB000709561957F4F8F4F9F4F9923A9F0F92F01
:102DC00096E9BB279395F695879577956795B7957F
:102DD000F111F8CFFAF4BB0F11F460FF1BC06F5F65
:102DE0007F4F8F4F9F4F16C0882311F096E911C077
:102DF000772321F09EE8872F762F05C0662371F098
:102E000096E8862F70E060E02AF09A95660F771FAB
:102E1000881FDAF7880F9695879597F90895990F87
:102E20000008550FAA0BE0E8FEEF16161706E80794
:102E3000F907C0F012161306E407F50798F0621BB5
:102E4000730B840B950B39F40A2661F0232B242B8A
:102E5000252B21F408950A2609F4A140A6958FEFA9
:102E6000811D811D089597F99F6780E870E060E0FB
:102E700008959FEF80EC089500240A941616170613
:102E800018060906089500240A941216130614065B
:102E900005060895092E0394000C11F4882352F0BE
:102EA000BB0F40F4BF2B11F460FF04C06F5F7F4F76
:102EB0008F4F9F4F089557FD9058440F551F59F05D
:102EC0005F3F71F04795880F97FB991F61F09F3F17
:102ED00079F087950895121613061406551FF2CF40
:102EE0004695F1DF08C0161617061806991FF1CF90
:102EF00086957105610508940895E894BB276627B7
:102F00007727CB0197F908950E940F1708F48FEFE8
:102F100008950E949C170C944A170E943C1738F0A1
:102F20000E94431720F0952311F00C9433170C9452
:102F3000391711240C947E170E945B1770F3959F2C
:102F4000C1F3950F50E0551F629FF001729FBB27A0
:102F5000F00DB11D639FAA27F00DB11DAA1F649F3C
:102F60006627B00DA11D661F829F2227B00DA11DEF
:102F7000621F739FB00DA11D621F839FA00D611D75
:102F8000221F749F3327A00D611D231F849F600D96
:102F9000211D822F762F6A2F11249F5750409AF0BF
:102FA000F1F088234AF0EE0FFF1FBB1F661F771F4B
:102FB000881F91505040A9F79E3F510580F00C9416
:102FC00033170C947E175F3FE4F3983ED4F3869555
:102FD00077956795B795F795E7959F5FC1F7FE2BB6
:102FE000880F911D9695879597F90895FA01EE0F30
:102FF000FF1F309621053105A1F16115710561F4BE
:103000008038BFE39B0749F168949038810561F0EF
:103010008038BFEF9B0741F099234AF5FF3FE10558
:103020003105210519F1E8940894E795D901AA23FF
:1030300029F4AB2FBE2FF85FD0F310C0FF5F70F400
:10304000A695E0F7F73950F019F0FF3A38F49F777A
:103050009F930DD00F9007FC9058089546F00C9464
:10306000391760E070E080E89FE308954FE79F77AD
:103070005F934F933F932F930E94F6182F913F91A8
:103080004F915F910E9489170C9453180E940F175B
:10309000880B990B089529F416F00C9433170C94AF
:1030A0007D170C9439170E946317A8F39638A0F780
:1030B00007F80F92E8942BE33AEA48EB5FE70E94A7
:1030C0009F170F920F920F924DB75EB70F920E940B
:1030D0003E19E8E6F0E00E9485184F915F91EF916C
:1030E000FF91E595EE1FFF1F49F0FE57E06844276A
:1030F000EE0F441FFA95E1F74195550B0E94B81861
:103100000F9007FE0C94AC180895DF93CF931F9394
:103110000F93FF92EF92DF927B018C01689406C0BF
:10312000DA2EEF010E949C17FE01E894A5912591EB
:10313000359145915591A6F3EF010E94D015FE01FE
:103140009701A801DA9469F7DF90EF90FF900F9153
:103150001F91CF91DF9108959B01AC0160E070E079
:1031600080E89FE30C942A160C9433170C94721980
:103170000E946317D8F39923C9F3940F511DA3F349
:103180009150504094F059F0882332F0660F771F29
:10319000881F91505040C1F79E3F51052CF7880F72
:1031A000911D9695879597F908955F3FACF0983EED
:1031B0009CF0BB27869577956795B79508F4B16025
:1031C0009395C1F7BB0F58F711F460FFE8CF6F5F1D
:1031D0007F4F8F4F9F4FE3CF0C947E1716F00C94C8
:1031E00072190C94391768940C9433170E94631762
:1031F000A8F39923C1F3AEF3DF93CF931F930F93FB
:10320000FF92C92FDD2788232AF02197660F771FA9
:10321000881FDAF720E030E040E85FEB9FE3883971
:1032200020F0803E38F021968F770E94B915E0E9B2
:10323000F0E004C00E94B915EDEBF0E00E948518A3
:103240008B01BE01EC01FB2E6F5771097595771F3D
:10325000880B990B0E94D41628E132E741E35FE323
:103260000E949C17AF2D9801AE01FF900F911F9106
:10327000CF91DF910E94D0150C944A17FA01DC011E
:10328000AA0FBB1F9B01AC01BF5728F4222733278D
:103290004427507820C0B75190F4AB2F00244695B6
:1032A00037952795011CA395D2F3002071F0220FCA
:1032B000331F441FB395DAF30ED00C94B815613068
:1032C0007105A0E88A07B94630F49B01AC01662776
:1032D000772788279078309621F0208331834283A6
:1032E000538308959F3F31F0915020F4879577954F
:1032F0006795B795880F911D9695879597F90895CD
:10330000DB018F939F930E94B819BF91AF91A29F49
:10331000800D911DA39F900DB29F900D11240895D3
:10332000A1E21A2EAA1BBB1BFD010DC0AA1FBB1FC9
:10333000EE1FFF1FA217B307E407F50720F0A21B3B
:10334000B30BE40BF50B661F771F881F991F1A94A8
:1033500069F760957095809590959B01AC01BD01D2
:10336000CF010895EE0FFF1F0590F491E02D099411
:103370000E94CB19A59F900DB49F900DA49F800D26
:10338000911D11240895B7FF0C94B8190E94B81923
:10339000821B930B0895A29FB001B39FC001A39F0E
:1033A000700D811D1124911DB29F700D811D11247E
:1033B000911D0895FB01DC018D9101908019011090
:1033C000D9F3990B0895FB01DC0101900D920020C7
:1033D000E1F70895FB01DC014150504048F00190B5
:1033E0000D920020C9F701C01D9241505040E0F7F6
:1033F000089510E0C3EAD0E004C0FE010E94B219B3
:0C3400002196C43AD107C9F7F894FFCF19
:10340C005802B004FC08F8118C230000000065067B
:10341C00E3018C07C705C106D7064D060000000066
:10342C008302E3011002D00241021F0233020000AA
:10343C0000001E06F1058C07C705EA05D705C8056F
:10344C000D0A006E616E00696E66006F7666004D47
:10345C005335363131203078373720666F756E64CE
:10346C002E004D53353631312030783737206E6F82
:10347C007420666F756E642E005452414E534D4944
:10348C005454455220495320524541445900475009
:10349C00524D4300474E524D430047504747410061
:1034AC00474E47474100444154412053454E440048
:1034BC0054656D70657261747572653A2000507256
:1034CC006573737572653A2000416C746974756428
:1034DC00653A20004C617469747564653A20004C3F
:1034EC006F6E6769747564653A2000555620496E95
:1034FC0074656E736974793A20004D5335363131E9
:0E350C002052656164204572726F723A200091
:00000001FF
